{"abi":[{"type":"constructor","inputs":[{"name":"_usdc","type":"address","internalType":"address"},{"name":"_treasury","type":"address","internalType":"address"},{"name":"_relayer","type":"address","internalType":"address"}],"stateMutability":"nonpayable"},{"type":"function","name":"defaultAllocations","inputs":[{"name":"","type":"uint256","internalType":"uint256"}],"outputs":[{"name":"token","type":"address","internalType":"address"},{"name":"bps","type":"uint256","internalType":"uint256"}],"stateMutability":"view"},{"type":"function","name":"emergencyWithdraw","inputs":[],"outputs":[],"stateMutability":"nonpayable"},{"type":"function","name":"getAllocationsCount","inputs":[],"outputs":[{"name":"","type":"uint256","internalType":"uint256"}],"stateMutability":"view"},{"type":"function","name":"getUserPortfolio","inputs":[{"name":"user","type":"address","internalType":"address"}],"outputs":[{"name":"tokens","type":"address[]","internalType":"address[]"},{"name":"balances","type":"uint256[]","internalType":"uint256[]"}],"stateMutability":"view"},{"type":"function","name":"investForUser","inputs":[{"name":"user","type":"address","internalType":"address"},{"name":"usdcAmount","type":"uint256","internalType":"uint256"}],"outputs":[],"stateMutability":"nonpayable"},{"type":"function","name":"owner","inputs":[],"outputs":[{"name":"","type":"address","internalType":"address"}],"stateMutability":"view"},{"type":"function","name":"platformFeeBps","inputs":[],"outputs":[{"name":"","type":"uint256","internalType":"uint256"}],"stateMutability":"view"},{"type":"function","name":"relayer","inputs":[],"outputs":[{"name":"","type":"address","internalType":"address"}],"stateMutability":"view"},{"type":"function","name":"renounceOwnership","inputs":[],"outputs":[],"stateMutability":"nonpayable"},{"type":"function","name":"setAllocations","inputs":[{"name":"allocs","type":"tuple[]","internalType":"struct PledgeVaultRH.StockAllocation[]","components":[{"name":"token","type":"address","internalType":"address"},{"name":"bps","type":"uint256","internalType":"uint256"}]}],"outputs":[],"stateMutability":"nonpayable"},{"type":"function","name":"setRelayer","inputs":[{"name":"_relayer","type":"address","internalType":"address"}],"outputs":[],"stateMutability":"nonpayable"},{"type":"function","name":"setTreasury","inputs":[{"name":"_treasury","type":"address","internalType":"address"}],"outputs":[],"stateMutability":"nonpayable"},{"type":"function","name":"transferOwnership","inputs":[{"name":"newOwner","type":"address","internalType":"address"}],"outputs":[],"stateMutability":"nonpayable"},{"type":"function","name":"treasury","inputs":[],"outputs":[{"name":"","type":"address","internalType":"address"}],"stateMutability":"view"},{"type":"function","name":"usdc","inputs":[],"outputs":[{"name":"","type":"address","internalType":"contract IERC20"}],"stateMutability":"view"},{"type":"function","name":"userStockBalances","inputs":[{"name":"","type":"address","internalType":"address"},{"name":"","type":"address","internalType":"address"}],"outputs":[{"name":"","type":"uint256","internalType":"uint256"}],"stateMutability":"view"},{"type":"event","name":"AllocationsUpdated","inputs":[{"name":"count","type":"uint256","indexed":false,"internalType":"uint256"}],"anonymous":false},{"type":"event","name":"EmergencyWithdraw","inputs":[{"name":"user","type":"address","indexed":true,"internalType":"address"},{"name":"totalReturned","type":"uint256","indexed":false,"internalType":"uint256"}],"anonymous":false},{"type":"event","name":"Invested","inputs":[{"name":"user","type":"address","indexed":true,"internalType":"address"},{"name":"usdcAmount","type":"uint256","indexed":false,"internalType":"uint256"},{"name":"fee","type":"uint256","indexed":false,"internalType":"uint256"}],"anonymous":false},{"type":"event","name":"OwnershipTransferred","inputs":[{"name":"previousOwner","type":"address","indexed":true,"internalType":"address"},{"name":"newOwner","type":"address","indexed":true,"internalType":"address"}],"anonymous":false},{"type":"event","name":"RelayerUpdated","inputs":[{"name":"newRelayer","type":"address","indexed":false,"internalType":"address"}],"anonymous":false},{"type":"event","name":"TreasuryUpdated","inputs":[{"name":"newTreasury","type":"address","indexed":false,"internalType":"address"}],"anonymous":false},{"type":"error","name":"OwnableInvalidOwner","inputs":[{"name":"owner","type":"address","internalType":"address"}]},{"type":"error","name":"OwnableUnauthorizedAccount","inputs":[{"name":"account","type":"address","internalType":"address"}]},{"type":"error","name":"ReentrancyGuardReentrantCall","inputs":[]},{"type":"error","name":"SafeERC20FailedOperation","inputs":[{"name":"token","type":"address","internalType":"address"}]}],"bytecode":{"object":"0x60a060405260c860035534801562000015575f80fd5b506040516200166338038062001663833981016040819052620000389162000239565b33806200005f57604051631e4fbdf760e01b81525f60048201526024015b60405180910390fd5b6200006a81620001ce565b5060017f9b779b17422d0df92223018b32b4d1fa46e071723d6817e2486d003becc55f00556001600160a01b038316620000e75760405162461bcd60e51b815260206004820152601660248201527f506c656467655661756c743a207a65726f207573646300000000000000000000604482015260640162000056565b6001600160a01b0382166200013f5760405162461bcd60e51b815260206004820152601a60248201527f506c656467655661756c743a207a65726f207472656173757279000000000000604482015260640162000056565b6001600160a01b038116620001975760405162461bcd60e51b815260206004820152601960248201527f506c656467655661756c743a207a65726f2072656c6179657200000000000000604482015260640162000056565b6001600160a01b03928316608052600280549284166001600160a01b03199384161790556001805491909316911617905562000280565b5f80546001600160a01b038381166001600160a01b0319831681178455604051919092169283917f8be0079c531659141344cd1fd0a4f28419497f9722a3daafe3b4186f6b6457e09190a35050565b80516001600160a01b038116811462000234575f80fd5b919050565b5f805f606084860312156200024c575f80fd5b62000257846200021d565b925062000267602085016200021d565b915062000277604085016200021d565b90509250925092565b6080516113b5620002ae5f395f818161017301528181610850015281816108ad0152610cf701526113b55ff3fe608060405234801561000f575f80fd5b50600436106100fb575f3560e01c80638da5cb5b11610093578063db2e21bc11610063578063db2e21bc1461022e578063ea5ca2b814610236578063f0f4426014610260578063f2fde38b14610273575f80fd5b80638da5cb5b146101f05780639a3515be14610200578063afc0330614610213578063afc47ead14610226575f80fd5b806361d027b3116100ce57806361d027b3146101ad5780636548e9bc146101c0578063715018a6146101d55780638406c079146101dd575f80fd5b806310fb5ac0146100ff5780631edb27e91461013657806322dcd13e146101575780633e413bee1461016e575b5f80fd5b61011261010d3660046110d4565b610286565b604080516001600160a01b0390931683526020830191909152015b60405180910390f35b6101496101443660046110ff565b6102bc565b60405161012d929190611121565b61016060035481565b60405190815260200161012d565b6101957f000000000000000000000000000000000000000000000000000000000000000081565b6040516001600160a01b03909116815260200161012d565b600254610195906001600160a01b031681565b6101d36101ce3660046110ff565b610417565b005b6101d36104cf565b600154610195906001600160a01b031681565b5f546001600160a01b0316610195565b6101d361020e3660046111a3565b6104e2565b6101d3610221366004611212565b6106f4565b600454610160565b6101d3610a9d565b61016061024436600461123c565b600560209081525f928352604080842090915290825290205481565b6101d361026e3660046110ff565b610d6b565b6101d36102813660046110ff565b610e17565b60048181548110610295575f80fd5b5f918252602090912060029091020180546001909101546001600160a01b03909116915082565b60608060065f846001600160a01b03166001600160a01b031681526020019081526020015f2080548060200260200160405190810160405280929190818152602001828054801561033457602002820191905f5260205f20905b81546001600160a01b03168152600190910190602001808311610316575b50505050509150815167ffffffffffffffff81111561035557610355611273565b60405190808252806020026020018201604052801561037e578160200160208202803683370190505b5090505f5b8251811015610411576001600160a01b0384165f90815260056020526040812084519091908590849081106103ba576103ba611287565b60200260200101516001600160a01b03166001600160a01b031681526020019081526020015f20548282815181106103f4576103f4611287565b602090810291909101015280610409816112af565b915050610383565b50915091565b61041f610e54565b6001600160a01b03811661047a5760405162461bcd60e51b815260206004820152601960248201527f506c656467655661756c743a207a65726f2072656c617965720000000000000060448201526064015b60405180910390fd5b600180546001600160a01b0319166001600160a01b0383169081179091556040519081527f09bf35b7806e61e7baf86e6547c4221f69d130ccc0a19215d064685a89464a70906020015b60405180910390a150565b6104d7610e54565b6104e05f610e80565b565b6104ea610e54565b6104f560045f61105e565b5f805b82811015610660575f84848381811061051357610513611287565b61052992602060409092020190810191506110ff565b6001600160a01b03160361057f5760405162461bcd60e51b815260206004820152601760248201527f506c656467655661756c743a207a65726f20746f6b656e0000000000000000006044820152606401610471565b5f84848381811061059257610592611287565b90506040020160200135116105e15760405162461bcd60e51b8152602060048201526015602482015274506c656467655661756c743a207a65726f2062707360581b6044820152606401610471565b8383828181106105f3576105f3611287565b905060400201602001358261060891906112c7565b9150600484848381811061061e5761061e611287565b83546001810185555f948552602090942060409091029290920192600202909101905061064b82826112e0565b50508080610658906112af565b9150506104f8565b5080612710146106bc5760405162461bcd60e51b815260206004820152602160248201527f506c656467655661756c743a20627073206d75737420746f74616c20313030306044820152600360fc1b6064820152608401610471565b6040518281527fd3c4fdb5f6656af482a43bc7bf69f83a3778f7336d4f03c595e65159cdc256659060200160405180910390a1505050565b6001546001600160a01b0316331461074e5760405162461bcd60e51b815260206004820152601860248201527f506c656467655661756c743a206e6f742072656c6179657200000000000000006044820152606401610471565b610756610ecf565b6001600160a01b0382166107a55760405162461bcd60e51b8152602060048201526016602482015275283632b233b2ab30bab63a1d103d32b937903ab9b2b960511b6044820152606401610471565b5f81116107f45760405162461bcd60e51b815260206004820152601860248201527f506c656467655661756c743a207a65726f20616d6f756e7400000000000000006044820152606401610471565b6004546108435760405162461bcd60e51b815260206004820152601b60248201527f506c656467655661756c743a206e6f20616c6c6f636174696f6e7300000000006044820152606401610471565b6108786001600160a01b037f000000000000000000000000000000000000000000000000000000000000000016833084610eea565b5f6127106003548361088a9190611316565b610894919061132d565b905080156108d6576002546108d6906001600160a01b037f00000000000000000000000000000000000000000000000000000000000000008116911683610f26565b5f6108e1828461134c565b90505f5b600454811015610a3c575f6004828154811061090357610903611287565b5f91825260208083206040805180820190915260029093020180546001600160a01b0316835260010154908201819052909250612710906109449086611316565b61094e919061132d565b90508015610a27576001600160a01b038088165f90815260056020908152604080832086519094168352929052908120805483929061098e9084906112c7565b90915550506001600160a01b038088165f90815260076020908152604080832086519094168352929052205460ff16610a27576001600160a01b038781165f81815260066020908152604080832087518154600180820184559286528486200180546001600160a01b031916918816919091179055938352600782528083208751909516835293905291909120805460ff191690911790555b50508080610a34906112af565b9150506108e5565b5060408051848152602081018490526001600160a01b038616917f9e9d071824fd57d062ca63fd8b786d8da48a6807eebbcb2d83f9e8d21398e28c910160405180910390a25050610a9960015f8051602061136083398151915255565b5050565b610aa5610ecf565b335f90815260066020908152604080832080548251818502810185019093528083529192909190830182828015610b0357602002820191905f5260205f20905b81546001600160a01b03168152600190910190602001808311610ae5575b505050505090505f815111610b5a5760405162461bcd60e51b815260206004820152601960248201527f506c656467655661756c743a206e6f20706f736974696f6e73000000000000006044820152606401610471565b5f805b8251811015610c8357335f90815260056020526040812084518290869085908110610b8a57610b8a611287565b60200260200101516001600160a01b03166001600160a01b031681526020019081526020015f205490505f811115610c1b57610bc681846112c7565b335f908152600560205260408120865192955090918290879086908110610bef57610bef611287565b60200260200101516001600160a01b03166001600160a01b031681526020019081526020015f20819055505b335f90815260076020526040812085518290879086908110610c3f57610c3f611287565b6020908102919091018101516001600160a01b031682528101919091526040015f20805460ff19169115159190911790555080610c7b816112af565b915050610b5d565b50335f908152600660205260408120610c9b9161107c565b5f8111610cea5760405162461bcd60e51b815260206004820181905260248201527f506c656467655661756c743a206e6f7468696e6720746f2077697468647261776044820152606401610471565b610d1e6001600160a01b037f0000000000000000000000000000000000000000000000000000000000000000163383610f26565b60405181815233907f5fafa99d0643513820be26656b45130b01e1c03062e1266bf36f88cbd3bd96959060200160405180910390a250506104e060015f8051602061136083398151915255565b610d73610e54565b6001600160a01b038116610dc95760405162461bcd60e51b815260206004820152601a60248201527f506c656467655661756c743a207a65726f2074726561737572790000000000006044820152606401610471565b600280546001600160a01b0319166001600160a01b0383169081179091556040519081527f7dae230f18360d76a040c81f050aa14eb9d6dc7901b20fc5d855e2a20fe814d1906020016104c4565b610e1f610e54565b6001600160a01b038116610e4857604051631e4fbdf760e01b81525f6004820152602401610471565b610e5181610e80565b50565b5f546001600160a01b031633146104e05760405163118cdaa760e01b8152336004820152602401610471565b5f80546001600160a01b038381166001600160a01b0319831681178455604051919092169283917f8be0079c531659141344cd1fd0a4f28419497f9722a3daafe3b4186f6b6457e09190a35050565b610ed7610f60565b60025f8051602061136083398151915255565b610ef8848484846001610f8f565b610f2057604051635274afe760e01b81526001600160a01b0385166004820152602401610471565b50505050565b610f338383836001610ffc565b610f5b57604051635274afe760e01b81526001600160a01b0384166004820152602401610471565b505050565b5f80516020611360833981519152546002036104e057604051633ee5aeb560e01b815260040160405180910390fd5b6040516323b872dd60e01b5f8181526001600160a01b038781166004528616602452604485905291602083606481808c5af1925060015f51148316610feb578383151615610fdf573d5f823e3d81fd5b5f883b113d1516831692505b604052505f60605295945050505050565b60405163a9059cbb60e01b5f8181526001600160a01b038616600452602485905291602083604481808b5af1925060015f51148316611052578383151615611046573d5f823e3d81fd5b5f873b113d1516831692505b60405250949350505050565b5080545f8255600202905f5260205f2090810190610e519190611097565b5080545f8255905f5260205f2090810190610e5191906110c0565b5b808211156110bc5780546001600160a01b03191681555f6001820155600201611098565b5090565b5b808211156110bc575f81556001016110c1565b5f602082840312156110e4575f80fd5b5035919050565b6001600160a01b0381168114610e51575f80fd5b5f6020828403121561110f575f80fd5b813561111a816110eb565b9392505050565b604080825283519082018190525f906020906060840190828701845b828110156111625781516001600160a01b03168452928401929084019060010161113d565b505050838103828501528451808252858301918301905f5b818110156111965783518352928401929184019160010161117a565b5090979650505050505050565b5f80602083850312156111b4575f80fd5b823567ffffffffffffffff808211156111cb575f80fd5b818501915085601f8301126111de575f80fd5b8135818111156111ec575f80fd5b8660208260061b8501011115611200575f80fd5b60209290920196919550909350505050565b5f8060408385031215611223575f80fd5b823561122e816110eb565b946020939093013593505050565b5f806040838503121561124d575f80fd5b8235611258816110eb565b91506020830135611268816110eb565b809150509250929050565b634e487b7160e01b5f52604160045260245ffd5b634e487b7160e01b5f52603260045260245ffd5b634e487b7160e01b5f52601160045260245ffd5b5f600182016112c0576112c061129b565b5060010190565b808201808211156112da576112da61129b565b92915050565b81356112eb816110eb565b81546001600160a01b0319166001600160a01b03919091161781556020919091013560019190910155565b80820281158282048414176112da576112da61129b565b5f8261134757634e487b7160e01b5f52601260045260245ffd5b500490565b818103818111156112da576112da61129b56fe9b779b17422d0df92223018b32b4d1fa46e071723d6817e2486d003becc55f00a264697066735822122009d99c059b3239249b9e61e52eca36e45c5d7ce3e6fedcfeb6cf65db502ae44264736f6c63430008140033","linkReferences":{}},"methodIdentifiers":{"defaultAllocations(uint256)":"10fb5ac0","emergencyWithdraw()":"db2e21bc","getAllocationsCount()":"afc47ead","getUserPortfolio(address)":"1edb27e9","investForUser(address,uint256)":"afc03306","owner()":"8da5cb5b","platformFeeBps()":"22dcd13e","relayer()":"8406c079","renounceOwnership()":"715018a6","setAllocations((address,uint256)[])":"9a3515be","setRelayer(address)":"6548e9bc","setTreasury(address)":"f0f44260","transferOwnership(address)":"f2fde38b","treasury()":"61d027b3","usdc()":"3e413bee","userStockBalances(address,address)":"ea5ca2b8"},"storageLayout":{"storage":[{"astId":8,"contract":"src/PledgeVaultRH.sol:PledgeVaultRH","label":"_owner","offset":0,"slot":"0","type":"t_address"},{"astId":1068,"contract":"src/PledgeVaultRH.sol:PledgeVaultRH","label":"relayer","offset":0,"slot":"1","type":"t_address"},{"astId":1070,"contract":"src/PledgeVaultRH.sol:PledgeVaultRH","label":"treasury","offset":0,"slot":"2","type":"t_address"},{"astId":1073,"contract":"src/PledgeVaultRH.sol:PledgeVaultRH","label":"platformFeeBps","offset":0,"slot":"3","type":"t_uint256"},{"astId":1082,"contract":"src/PledgeVaultRH.sol:PledgeVaultRH","label":"defaultAllocations","offset":0,"slot":"4","type":"t_array(t_struct(StockAllocation)1078_storage)dyn_storage"},{"astId":1088,"contract":"src/PledgeVaultRH.sol:PledgeVaultRH","label":"userStockBalances","offset":0,"slot":"5","type":"t_mapping(t_address,t_mapping(t_address,t_uint256))"},{"astId":1093,"contract":"src/PledgeVaultRH.sol:PledgeVaultRH","label":"_userTokens","offset":0,"slot":"6","type":"t_mapping(t_address,t_array(t_address)dyn_storage)"},{"astId":1099,"contract":"src/PledgeVaultRH.sol:PledgeVaultRH","label":"_hasToken","offset":0,"slot":"7","type":"t_mapping(t_address,t_mapping(t_address,t_bool))"}],"types":{"t_address":{"encoding":"inplace","label":"address","numberOfBytes":"20"},"t_array(t_address)dyn_storage":{"encoding":"dynamic_array","label":"address[]","numberOfBytes":"32","base":"t_address"},"t_array(t_struct(StockAllocation)1078_storage)dyn_storage":{"encoding":"dynamic_array","label":"struct PledgeVaultRH.StockAllocation[]","numberOfBytes":"32","base":"t_struct(StockAllocation)1078_storage"},"t_bool":{"encoding":"inplace","label":"bool","numberOfBytes":"1"},"t_mapping(t_address,t_array(t_address)dyn_storage)":{"encoding":"mapping","key":"t_address","label":"mapping(address => address[])","numberOfBytes":"32","value":"t_array(t_address)dyn_storage"},"t_mapping(t_address,t_bool)":{"encoding":"mapping","key":"t_address","label":"mapping(address => bool)","numberOfBytes":"32","value":"t_bool"},"t_mapping(t_address,t_mapping(t_address,t_bool))":{"encoding":"mapping","key":"t_address","label":"mapping(address => mapping(address => bool))","numberOfBytes":"32","value":"t_mapping(t_address,t_bool)"},"t_mapping(t_address,t_mapping(t_address,t_uint256))":{"encoding":"mapping","key":"t_address","label":"mapping(address => mapping(address => uint256))","numberOfBytes":"32","value":"t_mapping(t_address,t_uint256)"},"t_mapping(t_address,t_uint256)":{"encoding":"mapping","key":"t_address","label":"mapping(address => uint256)","numberOfBytes":"32","value":"t_uint256"},"t_struct(StockAllocation)1078_storage":{"encoding":"inplace","label":"struct PledgeVaultRH.StockAllocation","numberOfBytes":"64","members":[{"astId":1075,"contract":"src/PledgeVaultRH.sol:PledgeVaultRH","label":"token","offset":0,"slot":"0","type":"t_address"},{"astId":1077,"contract":"src/PledgeVaultRH.sol:PledgeVaultRH","label":"bps","offset":0,"slot":"1","type":"t_uint256"}]},"t_uint256":{"encoding":"inplace","label":"uint256","numberOfBytes":"32"}}},"id":10}